:020000040800F2
:10000000B0080020490200084D1A00084F1A0008E5
:10001000531A0008571A00085B1A00080000000075
:10002000000000000000000000000000611A00084D
:100030005F1A000800000000631A0008651A000833
:10004000671A0008691A00086B1A00086D1A000880
:100050006F1A0008711A0008731A0008751A000850
:10006000771A0008791A00087B1A00087D1A000820
:100070007F1A0008811A0008831A0008851A0008F0
:10008000871A0008891A00088B1A00088D1A0008C0
:100090008F1A0008911A0008931A0008951A000890
:1000A000971A0008991A00089B1A00089D1A000860
:1000B0009F1A0008A11A0008A31A0008A51A000830
:1000C000A71A0008A91A0008AB1A0008AD1A000800
:1000D000AF1A0008B11A0008B31A0008B51A0008D0
:1000E000B71A0008B91A0008BB1A0008BD1A0008A0
:1000F000BF1A0008C11A0008C31A0008C51A000870
:10010000C71A0008C91A0008CB1A0008CD1A00083F
:10011000CF1A0008D11A0008D31A0008D51A00080F
:10012000D71A0008D91A0008DB1A0008DD1A0008DF
:1001300000F002F800F03CF80AA090E8000C8244BD
:100140008344AAF10107DA4501D100F031F8AFF29A
:10015000090EBAE80F0013F0010F18BFFB1A43F0A5
:10016000010318470C1A00002C1A0000103A24BF93
:1001700078C878C1FAD8520724BF30C830C144BF0C
:1001800004680C607047000000230024002500264E
:10019000103A28BF78C1FBD8520728BF30C148BFEA
:1001A0000B6070471FB5AFF300801FBD10B510BDC9
:1001B00001F098FC1146FFF7F5FF01F0D2FB01F0CA
:1001C000B6FCFFF7F3FF01F0BDFC000030BF704745
:1001D00020BF704740BF7047BFF36F8F7047BFF3BA
:1001E0004F8F7047BFF35F8F704701DF7047EFF3AA
:1001F0001480704780F31488BFF36F8F7047EFF35C
:100200000980704780F309887047EFF308807047D2
:1002100080F30888704762B6704772B67047EFF394
:100220001080704771B6704761B67047EFF3138066
:10023000704780F311887047EFF31280704740BA1F
:10024000704700BA7047000003480047034804495C
:10025000044A054B7047000031010008B00000203F
:10026000B0080020B0040020B004002010B50446FF
:10027000FD48201806D0B0F5806F0DD0B0F5C05FF6
:100280001ED113E00121480201F0CAFA00214FF407
:10029000007001F0C5FA14E00121880201F0C0FAF3
:1002A00000214FF4806001F0BBFA0AE00121C8038D
:1002B00001F0B6FA00214FF4004001F0B1FA00E07D
:1002C00000BF00BF10BD30B5002200234268E74CDC
:1002D00022400D790C6844EA05242243426082687A
:1002E000E34C2240D1E902542C434D7944EA4504C1
:1002F00022438260C26A22F470020C7C641E1C439A
:10030000E3B242EA0352C26230BD002101600171D2
:1003100041718160C16001210174704721B182681F
:1003200042F00102826003E0826822F001028260F2
:10033000704721B1826842F48072826003E0826873
:1003400022F480728260704710B50023CBB21AB1DC
:1003500044681C43446002E044689C43446010BD10
:10036000816841F0080181607047014600208A6879
:1003700012F0080F01D0012000E0002070478168D2
:1003800041F0040181607047014600208A6812F044
:10039000040F01D0012000E00020704721B18268E5
:1003A00042F4A002826003E0826822F4A00282602C
:1003B0007047014600208A6812F4800F01D00120A6
:1003C00000E00020704710B500220023426822F4AC
:1003D00060424B1E42EA4332426010BD21B1426886
:1003E00042F40062426003E0426822F4006242602C
:1003F0007047F0B500240025092911DDC468A1F17A
:100400000A0606EB4607072606FA07F5AC43A1F1F4
:100410000A0606EB460603FA06F52C43C4600CE018
:10042000046901EB4107072606FA07F5AC4301EB27
:10043000410603FA06F52C430461072A0FDA446BE0
:10044000561E06EB86071F2606FA07F5AC43561E16
:1004500006EB860601FA06F52C43446322E00D2ADA
:100460000FDA046BD61F06EB86071F2606FA07F580
:10047000AC43D61F06EB860601FA06F52C4304634F
:1004800010E0C46AA2F10D0606EB86071F2606FAE5
:1004900007F5AC43A2F10D0606EB860601FA06F558
:1004A0002C43C462F0BD21B1826842F480128260A4
:1004B00003E0826822F48012826070470146C86CB3
:1004C00080B270476B480068704721B1426842F4BF
:1004D0008062426003E0426822F4806242607047BA
:1004E00021B1426842F48052426003E0426822F443
:1004F0008052426070470022826822F4E0420A4340
:100500008260704721B1826842F40042826003E059
:10051000826822F400428260704721B1826842F40E
:100520000212826003E0826822F402128260704745
:10053000014600208A6812F4001F01D0012000E06B
:1005400000207047F0B5002400250026092911DDA0
:10055000C468A1F10A0707EB470C072707FA0CF557
:10056000AC43A1F10A0707EB470703FA07F52C4351
:10057000C4600CE0046901EB410C072707FA0CF595
:10058000AC4301EB410703FA07F52C430461846B8C
:10059000C4F30156D71C06F1010CA7EB0C0707EBBF
:1005A000870C1F2707FA0CF5AC43D71C06F1010C8A
:1005B000A7EB0C0707EB870701FA07F52C438463C9
:1005C000F0BD10B500220023826B22F440124B1EB6
:1005D00042EA0352826310BD4250704702465018EF
:1005E000806A80B2704700224268234B1A400A4357
:1005F000426070474162826270470022426822F086
:100600001F020A434260704740B11A4944390968E1
:1006100041F40001194AC2F8081407E015494439A9
:10062000096821F40001154AC2F80814704702460F
:10063000002013680B4201D0012000E00020704729
:10064000CA430260704770B50246002000230024B0
:100650000B125568CEB205EA060415681D420FD08C
:1006600074B101200DE0000000DCFEBFFFFEF0FFD2
:10067000FDF7F1FF4C240140FFFD3FFF002001404A
:10068000002070BD00220A12D343036070470000AF
:10069000016821F001010160002101604160816079
:1006A000C1608B4A811A90425BD012DC894AA0EB70
:1006B000020190423AD007DC874941181BD0142927
:1006C00022D0282971D128E0142938D028297FD1B7
:1006D0003EE0B1F56C7F5FD006DCB1F5627F49D0BA
:1006E000B1F5677F74D14EE0B1F5717F5ED0B1F5A1
:1006F000767F6DD163E077494439496841F00F0155
:10070000744A443A516064E072494439496841F09E
:10071000F001704A443A51605BE06E4944394968DF
:1007200041F470616B4A443A516052E0694944397E
:10073000496841F47041674A443A516049E065496B
:100740004439496841F47021624A443A516040E0BA
:1007500060494439496841F470015E4A443A516045
:1007600037E05C494439496841F07061594A443A7C
:1007700051602EE05949096841F00F01554A443A49
:10078000C2F8041425E05549096841F0F001514AC6
:10079000443AC2F804141CE05049096841F47061FD
:1007A0004C4A443AC2F8041413E011E04B4909687A
:1007B00041F47041474A443AC2F8041409E04749F9
:1007C000096841F47021434A443AC2F8041400E035
:1007D00000BF00BF704710B50022026847F6F073F3
:1007E0009A430C6A8B6823430C6923434C69234367
:1007F0008C692343CC6923434C6A23438C6A23438B
:100800001A430260CB6843600B6883604B68C36027
:1008100010BD0021016041608160C16001614161E2
:100820008161C161016241628162704721B10268E8
:1008300042F00102026003E0026822F0010202605D
:1008400070471AB103680B43036002E003688B43EF
:10085000036070470146486880B270470246002036
:10086000002112F0805F03D01C4B1B1F196802E0AF
:10087000184B443B1968114201D0012000E00020D0
:10088000704710F0805F02D01449086002E01149FF
:1008900044394860704702460020002112F0805F12
:1008A00003D00E4B1B1F196802E00A4B443B19682A
:1008B000114201D0012000E00020704710F0805F5D
:1008C00002D00649086002E0024944394860704796
:1008D0008000024044000240F8FFFDBF04040240D3
:1008E000FC49096801F03801FA4A116011460968AB
:1008F000014311607047F749096821F00801F54A82
:10090000116011460968014311607047F149096897
:1009100021F01001EF4A116011460968014311608E
:100920007047ED48EB494860EC4848607047E9483B
:10093000006940F08000E749086170470420E549FC
:10094000C96801F00101012901D101200EE0E1494E
:10095000C96811F0040F01D0022007E0DD49C96821
:1009600011F0100F01D0032000E004207047002098
:10097000FF2000E0401E0028FCD1704770B50446FF
:100980000425FFF7DBFF054605E0FFF7F0FFFFF763
:10099000D5FF0546641E012D01D1002CF5D104B907
:1009A0000525284670BD70B50446042540F6FF7045
:1009B000FFF7E4FF0546042D19D1C648006940F051
:1009C0000200C449086108464461006940F04000E3
:1009D000086140F6FF70FFF7D1FF0546012D06D0F4
:1009E000BC48006941F6FD710840BA4908612846D3
:1009F00070BD10B5042440F6FF70FFF7BFFF04463A
:100A0000042C18D1B348006940F00400B1490861D2
:100A10000846006940F04000086140F6FF70FFF7AB
:100A2000ADFF0446012C06D0AA48006941F6FB71CF
:100A30000840A8490861204610BD10B5042440F6BE
:100A4000FF70FFF79BFF0446042C3BD1A248A1494D
:100A50008860A24888600846006940F0200008616C
:100A60000846006940F04000086140F6FF70FFF75B
:100A700085FF0446042C1CD19648006941F6DF71BD
:100A80000840944908610846006940F01000086178
:100A9000A520934908800F20FFF770FF0446012C22
:100AA00010D08C48006941F6EF710840894908610F
:100AB00008E0012C06D08748006941F6EF71084034
:100AC00084490861204610BD70B504460D460426D1
:100AD0000F20FFF753FF0646042E25D17D480069FD
:100AE00040F001007B49086125800F20FFF746FF99
:100AF0000646042E0FD1280C60800F20FFF73EFF22
:100B00000646012E10D07348006941F6FE71084078
:100B10007049086108E0012E06D06E48006941F670
:100B2000FE7108406B490861304670BD70B50446DF
:100B30000D4604260F20FFF721FF0646042E13D191
:100B40006448006940F001006249086125800F2077
:100B5000FFF714FF0646012E06D05E48006941F6F5
:100B6000FE7108405B490861304670BD70B50446AF
:100B70000D4604260F20FFF701FF0646042E17D16D
:100B8000554854498860554888600846006940F0D7
:100B90001000086125800F20FFF7F0FE0646012EA9
:100BA00006D04C48006941F6EF7108404949086198
:100BB000304670BD2DE9F04704464FF6FF752E46CE
:100BC0002F46A8464FF00409E443E5B2C4F30726D4
:100BD000C4F307474FEA14680F20FFF7CFFE8146A2
:100BE000B9F1040F41D13C483A4988603B488860DC
:100BF0000846006940F010000861FF2D06D0384813
:100C0000083005800F20FFF7B9FE8146B9F1040FC7
:100C100008D1FF2E06D032480A3006800F20FFF799
:100C2000ADFE8146B9F1040F08D1FF2F06D02C4844
:100C30000C3007800F20FFF7A1FE8146B9F1040FA9
:100C400009D1B8F1FF0F06D02648A0F80E880F2072
:100C5000FFF794FE8146B9F1010F06D01D480069E7
:100C600041F6EF7108401B4908614846BDE8F0872E
:100C700070B50446042540F6FF70FFF77FFE054679
:100C8000042D4CD1144813498860144888600846E4
:100C9000006940F0200008610846006940F040000B
:100CA000086140F6FF70FFF769FE0546042D2DD15F
:100CB0000848006941F6DF710840064908610846A6
:100CC000006940F01000086174B1002004490880F8
:100CD0000DE000000020024023016745AB89EFCD05
:100CE00000F8FF1F00F0FF1FA5204549088040F6CF
:100CF000FF70FFF743FE0546012D10D04148006903
:100D000041F6EF7108403F49086108E0012D06D027
:100D10003C48006941F6DF7108403A4908612846BD
:100D200070BD2DE9F04104460D46164604273648AD
:100D300034498860354888600F20FFF71FFE07465A
:100D4000042F1AD12F48006940F010002D49086186
:100D500044EA0500304340F0F8002949891C088026
:100D60000F20FFF70BFE0746012F06D0254800692C
:100D700041F6EF710840234908613846BDE8F0812B
:100D80002048C069800870471E48006A70470020EC
:100D90001C49C96911F0020F01D0012000E00020B8
:100DA000704700201749096811F0200F01D0012079
:100DB00000E00020704729B1124A12690243114B2A
:100DC0001A6104E00F4A126982430E4B1A617047A0
:100DD00001460020012908D10A4AD26912F0010F08
:100DE00001D0012008E0002006E0064AD2680A424D
:100DF00001D0012000E0002070470249C860704720
:100E000000F8FF1F0020024023016745AB89EFCDAA
:100E100010B50446C049601A8C422FD009DCBF4887
:100E2000201810D0B0F5806F16D0B0F5006F4AD101
:100E30001BE0B0F5806F2AD0B0F5006F30D0B0F570
:100E4000406F40D135E00121042000F0E9FC002191
:100E5000042000F0E5FC37E00121082000F0E0FC70
:100E60000021082000F0DCFC2EE00121102000F021
:100E7000D7FC0021102000F0D3FC25E00121202028
:100E800000F0CEFC0021202000F0CAFC1CE0012173
:100E9000402000F0C5FC0021402000F0C1FC13E020
:100EA0000121802000F0BCFC0021802000F0B8FC73
:100EB0000AE00121080200F0B3FC00214FF4807029
:100EC00000F0AEFC00E000BF00BF10BD10B5012176
:100ED000084600F0A5FC0021012000F0A1FC10BD97
:100EE000F0B500220023002400250026002791F8F9
:100EF00003C00CF00F0291F803C01CF0100F03D0D8
:100F000091F802C04CEA0202B1F800C01CF0FF0FD9
:100F100030D0066800242AE04FF0010C0CFA04F5EA
:100F2000B1F800C00CEA0503AB421FD1A5004FF099
:100F30000F0C0CFA05F7BE4302FA05FC4CEA060654
:100F400091F803C0BCF1280F05D14FF0010C0CFA49
:100F500004FCC0F814C091F803C0BCF1480F05D1DF
:100F60004FF0010C0CFA04FCC0F810C0641C082CF3
:100F7000D2D30660B1F800C0BCF1FF0F34DD466883
:100F800000242EE004F1080C4FF0010E0EFA0CF5CF
:100F9000B1F800C00CEA0503AB4221D1A5004FF027
:100FA0000F0C0CFA05F7BE4302FA05FC4CEA0606E4
:100FB00091F803C0BCF1280F05D104F1080C0EFA1A
:100FC0000CFEC0F814E091F803C0BCF1480F07D143
:100FD00004F1080C4FF0010E0EFA0CFEC0F810E000
:100FE000641C082CCED34660F0BD4FF6FF71018023
:100FF000022181700421C17070470246002093686D
:101000000B4201D0012000E00020704701468868B3
:1010100080B2704702460020D3680B4201D0012005
:1010200000E0002070470146C86880B27047016147
:101030007047416170470AB1016100E0416170474A
:10104000C16070474FF480320A43826181618261DE
:101050008269826970470022314B1A684FF68073AB
:101060001A4042EA00120A432D4B1A6070472D497C
:10107000C8617047F0B50022002300250024284EE7
:101080007568C0F3034482B200F44016B6F5401F01
:1010900008D125F07065224E766826F07066204FE4
:1010A0007E6012E000F48016B6F5801F06D103269C
:1010B00006FA04F39D4345F0706506E0460D3601DF
:1010C00002FA06F6B54345F0706521B1460D3601CA
:1010D00002FA06F63543124E7560F0BD30B50022B7
:1010E0008B071C0F0F2303FA04F20D4B08338C10EF
:1010F00053F8244094438D1043F825408C1053F846
:1011000024308C07240F00FA04F42343044C0834E1
:101110008D1044F8253030BD0014014000F8FEBFAA
:1011200000000140000020420020411EF24A1160F0
:101130000A09F1498039C1F88420411E4FF0E022AC
:10114000C2F880120A09ED490A6000BF04E00022DB
:10115000EB4941F82020401C0F28F8D370470020AD
:101160004FF02061E74A116000214FF0E022C2F801
:10117000081DE549E34A083211600021121D116083
:10118000121D116000BF05E00022DE49143141F854
:101190002020401C0328F7D30021DA4A20321160B6
:1011A000491E4FF0E022C2F8281DD64A28321160AD
:1011B0004FF0E022C2F8301D7047D3490143D14AB5
:1011C000083211607047F0B500210022002300248E
:1011D0000F25C678002E36D0CA4E0836366806F47B
:1011E000E066C6F5E066310AC1F10404CD404678F8
:1011F00006FA04F186782E40314309010678B607D5
:10120000F60EB140BE4E0778BF1056F8272006787C
:10121000B607F70EFF2606FA07F39A4319400A436A
:10122000B74E0778BF1046F82720067806F01F074C
:101230000126BE4007787F114FF0E02C0CEB8707AA
:10124000C7F800610BE0067806F01F060127B740DB
:10125000A94E90F800C04FEA6C1C46F82C70F0BD07
:101260000021017041708170C170704710B5FEF7A8
:10127000D4FF10BD10B5FEF7CEFF10BD10B5FEF7C0
:10128000D1FF10BD10B5FEF7CFFF10BD10B504465D
:101290002001FEF7CEFF10BD10B5FEF7CDFF10BD4B
:1012A00098480068C0F30930704710B50146002027
:1012B000002201F01F04012303FA04F28E4B803355
:1012C0004C1153F824301340934201D1012000E027
:1012D000002010BD8D490860704700F01F010122F9
:1012E0008A408649091F431141F8232070478548E9
:1012F0000068C0F30900704710B5014600200022C5
:1013000001F01F04012303FA04F27C4B7C334C11DF
:1013100053F824301340934201D1012000E0002013
:1013200010BD7848001F00687047794A0A400243A0
:10133000744B1B1D1A6070477348001D71490831BA
:10134000086070477048401C6E490831086070475B
:1013500041B16C4A0C32126802434FF0E023C3F8EB
:10136000102D07E0674A0C32126882434FF0E023E9
:10137000C3F8102D704710B5002200F01F040123A0
:1013800003FA04F241B15F4B20331B6813434FF063
:10139000E024C4F8243D07E05A4B20331B689343F4
:1013A0004FF0E024C4F8243D10BDF0B50023FF2425
:1013B00000250026534F08373F6807F4E067C7F55C
:1013C000E0673E0AC6F10403F44001FA03F602EABC
:1013D00004073E43360100F0C0039B09C0F301241B
:1013E000E700BE404FEAC40CFF2707FA0CF5454F53
:1013F000143757F823C02CEA050C47F823C057F8D8
:1014000023C04CEA060C47F823C0F0BD10B50146D6
:101410000020002200238B0A03F00F03012404FAAA
:1014200003F3384C2034246804EA03029A4201D1C1
:10143000012000E0002010BD002100F01F01314A12
:10144000136801228A4013434FF0E022C2F8043DA2
:10145000704710B5002100F01F012A4A13684C1E86
:101460000122A24013434FF0E022C2F8043D10BD18
:1014700010B50146002000230022C1F3833201246D
:1014800004FA02F21F4C2034246804EA0203934257
:1014900001D1012000E0002010BD30B50146002040
:1014A00000220023C1F38142C1F301531AB9154C44
:1014B0002834206811E0012A0CD1124C243424680D
:1014C000DD0024FA05F0022B02D000F00F0004E04A
:1014D000C0B202E00B4C2C34206830BD0146002025
:1014E0000022C1F380521AB9064B3033186802E06B
:1014F000044B34331868704780E100E084E200E078
:1015000000E400E004ED00E00000FA0500EF00E078
:1015100080FFFF1FDE48006840F00100DC490860E2
:1015200008464068DB490840D949486008460068D9
:10153000D9490840D64908600846006820F4802050
:1015400008600846406820F4FE004860002088607B
:101550007047CF49096821F48031CD4A11601146A6
:10156000096821F480211160B0F5803F03D0B0F507
:10157000802F0ED106E0C649096841F48031C44A83
:10158000116007E0C249096841F4A021C04A116016
:1015900000E000BF00BF704710B5014600220023E5
:1015A00000204A11012A02D1B94C236806E0022A20
:1015B00002D1B74C236A01E0B54C636A01F01F0207
:1015C000012494401C4201D0012000E0002010BD05
:1015D00010B5002400BF3120FFF7DEFFAF490870CF
:1015E000081F0068401C091F0860081D007828B902
:1015F00008460068A0F58071FF39ECD13120FFF773
:10160000CBFF08B1012400E00024204610BD0021DA
:101610009F4A116821F0F80141EAC001116070474A
:101620009F49086070470022994B5A6822F47C1247
:1016300040EA01031A43964B5A607047984908667E
:1016400070470021924A516821F003010143516023
:1016500070478F48406800F00C00704700218C4AAA
:10166000516821F0F0010143516070470021884A20
:10167000516821F4E0610143516070470021844AC0
:10168000516821F4605141EAC0015160704729B1AD
:101690007F4A527A02437E4B5A7206E07C4A527A63
:1016A000C343DBB21A407A4B5A7270477C49D83137
:1016B000086070470021764A516821F44041014397
:1016C000516070470021724A20321170704A82F8CE
:1016D0002010012802D004280AD104E001216C4A1C
:1016E0002032117005E00521694A2032117000E0B6
:1016F00000BF00BF70476B49086070476449096AC2
:101700000143634A11627047664944390860704773
:1017100030B500210022002300245D4D6D6805F0E6
:101720000C0121B1042905D0082923D105E05E4D23
:10173000056022E05C4D05601FE0554D6D6805F4C5
:101740007012022505EB9242514D6D6805F480330D
:101750001BB9564D554305600BE04D4D6D6815F4B2
:10176000003F03D0514D5543056002E04E4D5543B7
:10177000056002E04C4D056000BF00BF444D6D6840
:1017800005F0F00109094A4D6C5C0568E5404560CB
:101790003F4D6D6805F4E061090A454D6C5C456894
:1017A000E54085603A4D6D6805F46051C90A404DC9
:1017B0006C5C4568E540C560354D6D6805F4404199
:1017C000890B3B4D10356C5CC568B5FBF4F50561C4
:1017D00030BD29B12E4A526902432D4B5A6104E0B3
:1017E0002B4A526982432A4B5A61704729B1284AD1
:1017F00092690243264B9A6104E0254A926982432A
:10180000234B9A61704729B1214AD2690243204B88
:10181000DA6104E01E4AD26982431D4BDA617047E7
:1018200029B11B4AD2680243194BDA6004E0184A16
:10183000D2688243164BDA60704729B1144A1269A4
:101840000243134B1A6104E0114A12698243104BA0
:101850001A61704713494039086070471049C864DD
:1018600070470B49C87170470948406A40F0807062
:1018700007494862704701460020054A92680A42BB
:1018800001D0012000E000207047014988727047B4
:10189000001002400000FFF8FFFFF6FE04000020E9
:1018A000000042428004424200127A0000093D00DA
:1018B0005A1B000808B51020ADF8000000208DF874
:1018C000030069465A48FFF70BFB08BD10B500211D
:1018D0004FF00060FFF729FD10BD10B5FFF71AFEAD
:1018E0004FF48030FFF735FEFFF772FE5149087064
:1018F0000846007801282AD11020FFF707F80220B7
:10190000FEF7EEFF0020FFF7A9FE0020FFF7B6FE6E
:101910004FF48060FFF7AAFE4FF48040FFF7CAFE45
:101920004FF4A0114FF48030FFF77DFE0120FFF748
:1019300085FE00BF3920FFF72FFE0028FAD00220D5
:10194000FFF77FFE00BFFFF784FE0828FBD10121CF
:101950000846FFF73EFF01214FF40470FFF746FFF2
:1019600010BD10B5FFF7B9FFFFF7B0FFFFF7A2FFFB
:101970003148FEF78DFE31483149086031484860F2
:10198000002088600120C8600020086148614FF491
:10199000807088618000C86120200862000248626F
:1019A000002088622448FEF716FF01212248FEF736
:1019B0003DFF0020244908600120087148714FF460
:1019C000602088600020C860012008741B484C38E3
:1019D000FEF779FC052301220E2118484C38FEF74A
:1019E00008FD012115484C38FEF7A3FC01211348DE
:1019F0004C38FEF793FC11484C38FEF7B1FC00BFA1
:101A00000E484C38FEF7B1FC0028F9D10B484C3891
:101A1000FEF7B5FC00BF09484C38FEF7B5FC0028BE
:101A2000F9D1012105484C38FEF7B8FC00BFFEE7AC
:101A30000010014008000020080002404C24014032
:101A400020000020060000200C000020704700BF8E
:101A5000FEE700BFFEE700BFFEE700BFFEE77047FE
:101A600070477047704770477047704770477047BE
:101A700070477047704770477047704770477047AE
:101A8000704770477047704770477047704770479E
:101A9000704770477047704770477047704770478E
:101AA000704770477047704770477047704770477E
:101AB000704770477047704770477047704770476E
:101AC000704770477047704770477047704770475E
:101AD000704770477047704770477047704770474E
:101AE00070477047754600F029F8AE460500694614
:101AF000534620F00700854618B020B5FEF7A6FB38
:101B0000BDE820404FF000064FF000074FF00008FE
:101B10004FF0000B21F00701AC46ACE8C009ACE87F
:101B2000C009ACE8C009ACE8C0098D46704704465E
:101B3000AFF300802046FEF744FB000000487047EA
:101B40004C00002003494FF01800ABBE7047000066
:101B5000090000002600020070470000000001029A
:101B60000304010203040607080902040608000032
:101B7000901B0008000000200C0000006C01000811
:101B80009C1B00080C000020A4080000880100082D
:0C1B900000000000000000000000000049
:0400000508000131BD
:00000001FF
